{
  "_format": "hh-sol-artifact-1",
  "contractName": "MyCryptoMusicSpace",
  "sourceName": "contracts/MyCryptoMusicSpace.sol",
  "abi": [
    {
      "inputs": [],
      "stateMutability": "payable",
      "type": "constructor"
    },
    {
      "anonymous": false,
      "inputs": [
        {
          "indexed": true,
          "internalType": "address",
          "name": "from",
          "type": "address"
        },
        {
          "indexed": false,
          "internalType": "uint256",
          "name": "timestamp",
          "type": "uint256"
        },
        {
          "indexed": false,
          "internalType": "string",
          "name": "song",
          "type": "string"
        }
      ],
      "name": "NewSongRecommendation",
      "type": "event"
    },
    {
      "inputs": [],
      "name": "getAllRecommendations",
      "outputs": [
        {
          "components": [
            {
              "internalType": "address",
              "name": "from",
              "type": "address"
            },
            {
              "internalType": "string",
              "name": "song",
              "type": "string"
            },
            {
              "internalType": "uint256",
              "name": "timestamp",
              "type": "uint256"
            }
          ],
          "internalType": "struct MyCryptoMusicSpace.SongRecommendation[]",
          "name": "",
          "type": "tuple[]"
        }
      ],
      "stateMutability": "view",
      "type": "function"
    },
    {
      "inputs": [],
      "name": "getTotalRecommendedSongs",
      "outputs": [
        {
          "internalType": "uint256",
          "name": "",
          "type": "uint256"
        }
      ],
      "stateMutability": "view",
      "type": "function"
    },
    {
      "inputs": [
        {
          "internalType": "address",
          "name": "",
          "type": "address"
        }
      ],
      "name": "lastRecommendedAt",
      "outputs": [
        {
          "internalType": "uint256",
          "name": "",
          "type": "uint256"
        }
      ],
      "stateMutability": "view",
      "type": "function"
    },
    {
      "inputs": [
        {
          "internalType": "string",
          "name": "_song",
          "type": "string"
        }
      ],
      "name": "recommendSong",
      "outputs": [],
      "stateMutability": "nonpayable",
      "type": "function"
    }
  ],
  "bytecode": "0x60806040526200003360405180606001604052806022815260200162001545602291396200005b60201b6200061c1760201c565b60644244620000439190620001a8565b6200004f919062000245565b600081905550620002ec565b620000fb8160405160240162000072919062000168565b6040516020818303038152906040527f41304fac000000000000000000000000000000000000000000000000000000007bffffffffffffffffffffffffffffffffffffffffffffffffffffffff19166020820180517bffffffffffffffffffffffffffffffffffffffffffffffffffffffff8381831617835250505050620000fe60201b60201c565b50565b60008151905060006a636f6e736f6c652e6c6f679050602083016000808483855afa5050505050565b600062000134826200018c565b62000140818562000197565b9350620001528185602086016200020f565b6200015d81620002db565b840191505092915050565b6000602082019050818103600083015262000184818462000127565b905092915050565b600081519050919050565b600082825260208201905092915050565b6000620001b58262000205565b9150620001c28362000205565b9250827fffffffffffffffffffffffffffffffffffffffffffffffffffffffffffffffff03821115620001fa57620001f96200027d565b5b828201905092915050565b6000819050919050565b60005b838110156200022f57808201518184015260208101905062000212565b838111156200023f576000848401525b50505050565b6000620002528262000205565b91506200025f8362000205565b925082620002725762000271620002ac565b5b828206905092915050565b7f4e487b7100000000000000000000000000000000000000000000000000000000600052601160045260246000fd5b7f4e487b7100000000000000000000000000000000000000000000000000000000600052601260045260246000fd5b6000601f19601f8301169050919050565b61124980620002fc6000396000f3fe608060405234801561001057600080fd5b506004361061004c5760003560e01c80631a16c159146100515780636bfd09a01461006f57806370fcce7d1461009f5780639173c04f146100bd575b600080fd5b6100596100d9565b6040516100669190610d27565b60405180910390f35b610089600480360381019061008491906109d5565b61022a565b6040516100969190610e70565b60405180910390f35b6100a7610242565b6040516100b49190610e70565b60405180910390f35b6100d760048036038101906100d291906109fe565b610270565b005b60606002805480602002602001604051908101604052809291908181526020016000905b8282101561022157838290600052602060002090600302016040518060600160405290816000820160009054906101000a900473ffffffffffffffffffffffffffffffffffffffff1673ffffffffffffffffffffffffffffffffffffffff1673ffffffffffffffffffffffffffffffffffffffff16815260200160018201805461018690611061565b80601f01602080910402602001604051908101604052809291908181526020018280546101b290611061565b80156101ff5780601f106101d4576101008083540402835291602001916101ff565b820191906000526020600020905b8154815290600101906020018083116101e257829003601f168201915b50505050508152602001600282015481525050815260200190600101906100fd565b50505050905090565b60036020528060005260406000206000915090505481565b60006102686040518060600160405280602281526020016111f2602291396001546106b5565b600154905090565b42601e600360003373ffffffffffffffffffffffffffffffffffffffff1673ffffffffffffffffffffffffffffffffffffffff168152602001908152602001600020546102bd9190610f8d565b106102fd576040517f08c379a00000000000000000000000000000000000000000000000000000000081526004016102f490610e10565b60405180910390fd5b42600360003373ffffffffffffffffffffffffffffffffffffffff1673ffffffffffffffffffffffffffffffffffffffff168152602001908152602001600020819055506001600081548092919061035490611093565b91905055506103996040518060400160405280601581526020017f257320686173207265636f6d6d656e64656420257300000000000000000000008152503383610751565b600260405180606001604052803373ffffffffffffffffffffffffffffffffffffffff16815260200183815260200142815250908060018154018082558091505060019003906000526020600020906003020160009091909190915060008201518160000160006101000a81548173ffffffffffffffffffffffffffffffffffffffff021916908373ffffffffffffffffffffffffffffffffffffffff16021790555060208201518160010190805190602001906104589291906108b5565b50604082015181600201555050606442446104739190610f8d565b61047d91906110dc565b6000819055506032600054116105c9576104cc6040518060400160405280600781526020017f257320776f6e2100000000000000000000000000000000000000000000000000815250336107f0565b6000655af3107a400090504781111561051a576040517f08c379a000000000000000000000000000000000000000000000000000000000815260040161051190610e50565b60405180910390fd5b60003373ffffffffffffffffffffffffffffffffffffffff168260405161054090610d12565b60006040518083038185875af1925050503d806000811461057d576040519150601f19603f3d011682016040523d82523d6000602084013e610582565b606091505b50509050806105c6576040517f08c379a00000000000000000000000000000000000000000000000000000000081526004016105bd90610e30565b60405180910390fd5b50505b3373ffffffffffffffffffffffffffffffffffffffff167ffb8d28e6ce7e4672b9c200758a51ea89530add4098af715a27721c93b523a2874283604051610611929190610e8b565b60405180910390a250565b6106b2816040516024016106309190610d49565b6040516020818303038152906040527f41304fac000000000000000000000000000000000000000000000000000000007bffffffffffffffffffffffffffffffffffffffffffffffffffffffff19166020820180517bffffffffffffffffffffffffffffffffffffffffffffffffffffffff838183161783525050505061088c565b50565b61074d82826040516024016106cb929190610de0565b6040516020818303038152906040527f9710a9d0000000000000000000000000000000000000000000000000000000007bffffffffffffffffffffffffffffffffffffffffffffffffffffffff19166020820180517bffffffffffffffffffffffffffffffffffffffffffffffffffffffff838183161783525050505061088c565b5050565b6107eb83838360405160240161076993929190610d9b565b6040516020818303038152906040527fe0e9ad4f000000000000000000000000000000000000000000000000000000007bffffffffffffffffffffffffffffffffffffffffffffffffffffffff19166020820180517bffffffffffffffffffffffffffffffffffffffffffffffffffffffff838183161783525050505061088c565b505050565b6108888282604051602401610806929190610d6b565b6040516020818303038152906040527f319af333000000000000000000000000000000000000000000000000000000007bffffffffffffffffffffffffffffffffffffffffffffffffffffffff19166020820180517bffffffffffffffffffffffffffffffffffffffffffffffffffffffff838183161783525050505061088c565b5050565b60008151905060006a636f6e736f6c652e6c6f679050602083016000808483855afa5050505050565b8280546108c190611061565b90600052602060002090601f0160209004810192826108e3576000855561092a565b82601f106108fc57805160ff191683800117855561092a565b8280016001018555821561092a579182015b8281111561092957825182559160200191906001019061090e565b5b509050610937919061093b565b5090565b5b8082111561095457600081600090555060010161093c565b5090565b600061096b61096684610eec565b610ebb565b90508281526020810184848401111561098357600080fd5b61098e84828561101f565b509392505050565b6000813590506109a5816111da565b92915050565b600082601f8301126109bc57600080fd5b81356109cc848260208601610958565b91505092915050565b6000602082840312156109e757600080fd5b60006109f584828501610996565b91505092915050565b600060208284031215610a1057600080fd5b600082013567ffffffffffffffff811115610a2a57600080fd5b610a36848285016109ab565b91505092915050565b6000610a4b8383610ca4565b905092915050565b610a5c81610fe3565b82525050565b610a6b81610fe3565b82525050565b6000610a7c82610f2c565b610a868185610f4f565b935083602082028501610a9885610f1c565b8060005b85811015610ad45784840389528151610ab58582610a3f565b9450610ac083610f42565b925060208a01995050600181019050610a9c565b50829750879550505050505092915050565b6000610af182610f37565b610afb8185610f6b565b9350610b0b81856020860161102e565b610b14816111c9565b840191505092915050565b6000610b2a82610f37565b610b348185610f7c565b9350610b4481856020860161102e565b610b4d816111c9565b840191505092915050565b6000610b65602e83610f7c565b91507f4d757374207761697420333073206265666f7265207265636f6d6d656e64696e60008301527f6720616e6f7468657220736f6e670000000000000000000000000000000000006020830152604082019050919050565b6000610bcb602683610f7c565b91507f4661696c656420746f207769746864726177206d6f6e65792066726f6d20636f60008301527f6e747261637400000000000000000000000000000000000000000000000000006020830152604082019050919050565b6000610c31600083610f60565b9150600082019050919050565b6000610c4b603383610f7c565b91507f547279696e6720746f207769746864726177206d6f7265206d6f6e657920746860008301527f616e2074686520636f6e747261637420686173000000000000000000000000006020830152604082019050919050565b6000606083016000830151610cbc6000860182610a53565b5060208301518482036020860152610cd48282610ae6565b9150506040830151610ce96040860182610cf4565b508091505092915050565b610cfd81611015565b82525050565b610d0c81611015565b82525050565b6000610d1d82610c24565b9150819050919050565b60006020820190508181036000830152610d418184610a71565b905092915050565b60006020820190508181036000830152610d638184610b1f565b905092915050565b60006040820190508181036000830152610d858185610b1f565b9050610d946020830184610a62565b9392505050565b60006060820190508181036000830152610db58186610b1f565b9050610dc46020830185610a62565b8181036040830152610dd68184610b1f565b9050949350505050565b60006040820190508181036000830152610dfa8185610b1f565b9050610e096020830184610d03565b9392505050565b60006020820190508181036000830152610e2981610b58565b9050919050565b60006020820190508181036000830152610e4981610bbe565b9050919050565b60006020820190508181036000830152610e6981610c3e565b9050919050565b6000602082019050610e856000830184610d03565b92915050565b6000604082019050610ea06000830185610d03565b8181036020830152610eb28184610b1f565b90509392505050565b6000604051905081810181811067ffffffffffffffff82111715610ee257610ee161119a565b5b8060405250919050565b600067ffffffffffffffff821115610f0757610f0661119a565b5b601f19601f8301169050602081019050919050565b6000819050602082019050919050565b600081519050919050565b600081519050919050565b6000602082019050919050565b600082825260208201905092915050565b600081905092915050565b600082825260208201905092915050565b600082825260208201905092915050565b6000610f9882611015565b9150610fa383611015565b9250827fffffffffffffffffffffffffffffffffffffffffffffffffffffffffffffffff03821115610fd857610fd761110d565b5b828201905092915050565b6000610fee82610ff5565b9050919050565b600073ffffffffffffffffffffffffffffffffffffffff82169050919050565b6000819050919050565b82818337600083830152505050565b60005b8381101561104c578082015181840152602081019050611031565b8381111561105b576000848401525b50505050565b6000600282049050600182168061107957607f821691505b6020821081141561108d5761108c61116b565b5b50919050565b600061109e82611015565b91507fffffffffffffffffffffffffffffffffffffffffffffffffffffffffffffffff8214156110d1576110d061110d565b5b600182019050919050565b60006110e782611015565b91506110f283611015565b9250826111025761110161113c565b5b828206905092915050565b7f4e487b7100000000000000000000000000000000000000000000000000000000600052601160045260246000fd5b7f4e487b7100000000000000000000000000000000000000000000000000000000600052601260045260246000fd5b7f4e487b7100000000000000000000000000000000000000000000000000000000600052602260045260246000fd5b7f4e487b7100000000000000000000000000000000000000000000000000000000600052604160045260246000fd5b6000601f19601f8301169050919050565b6111e381610fe3565b81146111ee57600080fd5b5056fe5765206861766520256420746f74616c207265636f6d6d656e64656420736f6e6773a2646970667358221220aa0aa965b7346ebbb493b2ceb6e387a22249f70949fb1f8b7b82365668b0ae1b64736f6c63430008000033546869732069732061206d792d63727970746f2d737061636520636f6e7472616374",
  "linkReferences": {},
  "deployedLinkReferences": {}
}